S00F00004279676765726E2E7372656347
S11300000C9438000C9455000C9455000C94550035
S11300100C9455000C9455000C9455000C94550008
S11300200C9455000C9455000C9455000C945500F8
S11300300C9455000C9455000C9455000C945500E8
S11300400C9455000C9455000C9455000C945500D8
S11300500C9455000C9455000C9455000C945500C8
S11300600C9455000C9455000C9455000C945500B8
S113007011241FBECFEFD4E0DEBFCDBF11E0A0E05E
S1130080B1E0E2E6F0E102C005900D92A03AB107BA
S1130090D9F721E0A0EAB1E001C01D92AA3AB20763
S11300A0E1F70E9451010C942F080C94000082E0A7
S11300B090E0909387008093860081B3806181BB38
S11300C0EAE8F0E0808188608083ABE8B0E08C915E
S11300D080648C93808181608083089510920014E1
S11300E020E030E004C0909100142F5F3F4F482F70
S11300F050E042175307BCF7892F089590E0803AE7
S113010091057CF09C01205A310944E6429FC001CC
S1130110439F900D11246FE570E00E946A03CB01A8
S11301200895803A9105B4F4813491059CF020EA55
S113013030E0281B390B44E6429FC001439F900DD9
S113014011246FE570E00E946A0388279927861BB3
S1130150970B0895813491051CF48CE99FEF089561
S113016084E690E0089590E0833A91057CF09C0148
S1130170235A310944E6429FC001439F900D112444
S11301806CE570E00E946A03CB010895833A9105FF
S1130190B4F4873491059CF023EA30E0281B390B32
S11301A044E6429FC001439F900D11246CE570E02A
S11301B00E946A0388279927861B970B0895873422
S11301C091051CF48CE99FEF089584E690E008956E
S11301D0682F70E080E090E00E946F0220E030E041
S11301E04FE753E40E94C70120E030E048EC52E4BA
S11301F00E94FD020E943902CB0108959B017723DE
S113020024F422273327261B370BAC01992324F42B
S113021044275527481B590B2417350744F06233EC
S113022071056CF46F3C7F4F64F481E00895823370
S113023091054CF48F3C9F4F44F483E0089580E093
S1130240089582E0089584E0089582E0089582305C
S1130250F9F028F4882341F0813059F0089583306F
S113026069F0843081F0089586E091E00E94F30300
S1130270089586E191E00E94F303089588E291E0F5
S11302800E94F30308958AE391E00E94F303089522
S11302908DE491E00E94F303089585B7806885BFDB
S11302A00895CF93DF9300D000D0CDB7DEB787B3E6
S11302B08C7F87BB8FE190E00E94B9010E944D01C1
S11302C00E9457000E94C00180E00E946E008C834F
S11302D081E00E946E008B8382E00E946E008A831C
S11302E083E00E946E0089838B810E947E00F82E39
S11302F0E92E8C810E94B300182F092F89810E9456
S1130300E800C82EB92E8A810E94E800A82E992EF2
S1130310612F702F8F2D9E2D0E94FE00D82E86B344
S113032086B39F92AF92BF92CF92EF92FF920F93B8
S11303301F9382E691E09F938F930E94DD038D2D9E
S11303400E9427012FEF8FE797E0215080409040D3
S1130350E1F700C000000FB6F894DEBF0FBECDBFBA
S1130360B3CF5D9BFECF8CB908955F9BFECF8CB15C
S1130370089590BD89B988E18AB98EE880BD089551
S113038065EB71E081EB91E00E94920308950E9475
S1130390DB010C94C3020E94BC0258F00E94B50217
S11303A040F029F45F3F29F00C94AC0251110C94F5
S11303B0F7020C94B2020E94D40268F39923B1F3B9
S11303C0552391F3951B550BBB27AA276217730777
S11303D0840738F09F5F5F4F220F331F441FAA1F0B
S11303E0A9F335D00E2E3AF0E0E832D091505040C7
S11303F0E695001CCAF72BD0FE2F29D0660F771F75
S1130400881FBB1F261737074807AB07B0E809F05A
S1130410BB0B802DBF01FF2793585F4F3AF09E3FDF
S1130420510578F00C94AC020C94F7025F3FE4F3AE
S1130430983ED4F3869577956795B795F7959F5F22
S1130440C9F7880F911D9695879597F90895E1E06E
S1130450660F771F881FBB1F621773078407BA07CD
S113046020F0621B730B840BBA0BEE1F88F7E09528
S113047008950E9440026894B1110C94F702089503
S11304800E94DC0288F09F5798F0B92F9927B75142
S1130490B0F0E1F0660F771F881F991F1AF0BA9524
S11304A0C9F714C0B13091F00E94F602B1E008958A
S11304B00C94F602672F782F8827B85F39F0B93F7C
S11304C0CCF3869577956795B395D9F73EF49095D7
S11304D08095709561957F4F8F4F9F4F0895E89455
S11304E009C097FB3EF490958095709561957F4F78
S11304F08F4F9F4F9923A9F0F92F96E9BB27939526
S1130500F695879577956795B795F111F8CFFAF435
S1130510BB0F11F460FF1BC06F5F7F4F8F4F9F4F66
S113052016C0882311F096E911C0772321F09EE8C4
S1130530872F762F05C0662371F096E8862F70E02A
S113054060E02AF09A95660F771F881FDAF7880F04
S11305509695879597F9089597F99F6780E870E0D5
S113056060E008959FEF80EC089500240A94161625
S1130570170618060906089500240A94121613068D
S1130580140605060895092E0394000C11F488231B
S113059052F0BB0F40F4BF2B11F460FF04C06F5F37
S11305A07F4F8F4F9F4F089557FD9058440F551F0D
S11305B059F05F3F71F04795880F97FB991F61F0E1
S11305C09F3F79F087950895121613061406551F58
S11305D0F2CF4695F1DF08C0161617061806991FC4
S11305E0F1CF86957105610508940895E894BB27B9
S11305F066277727CB0197F908950E9410030C947E
S1130600C3020E94B50238F00E94BC0220F0952378
S113061011F00C94AC020C94B20211240C94F70265
S11306200E94D40270F3959FC1F3950F50E0551FBB
S1130630629FF001729FBB27F00DB11D639FAA2733
S1130640F00DB11DAA1F649F6627B00DA11D661F82
S1130650829F2227B00DA11D621F739FB00DA11DA3
S1130660621F839FA00D611D221F749F3327A00D5D
S1130670611D231F849F600D211D822F762F6A2FF9
S113068011249F5750409AF0F1F088234AF0EE0F5E
S1130690FF1FBB1F661F771F881F91505040A9F78B
S11306A09E3F510580F00C94AC020C94F7025F3F1E
S11306B0E4F3983ED4F3869577956795B795F795C7
S11306C0E7959F5FC1F7FE2B880F911D969587953F
S11306D097F9089597FB072E16F4009407D077FD39
S11306E009D00E947E0307FC05D03EF490958195C5
S11306F09F4F0895709561957F4F0895AA1BBB1B6A
S113070051E107C0AA1FBB1FA617B70710F0A61B0D
S1130710B70B881F991F5A95A9F780959095BC012E
S1130720CD0108950F931F93CF93DF93009731F476
S11307306115710519F480E090E03AC08B01EC0179
S11307406EE070E081E090E00E940406FC01892BD9
S113075091F380E883830115110571F013870287F3
S113076081E883838091A0019091A101892B21F4D8
S1130770F093A101E093A0012097C9F0D187C0872D
S11307808381826083838091A2019091A301892B4C
S113079071F4F093A301E093A2018091A4019091DC
S11307A0A501892B21F4F093A501E093A401CF01C5
S11307B0DF91CF911F910F910895A0E0B0E0E3EE97
S11307C0F3E00C940808AE014B5F5F4FFA016191AE
S11307D07191AF018091A2019091A3010E94230421
S11307E0E2E00C9424080F931F93CF93DF93E091DE
S11307F0A201F091A301238121FF1BC08C01D0E051
S1130800C0E0F80181918F016091A2017091A30170
S1130810DB011896ED91FC911997882331F0099525
S1130820892B79F3DFEFCFEFECCF8AE00995892BA1
S113083019F08FEF9FEF02C08D2F9C2FDF91CF9186
S11308401F910F910895ABE0B0E0E9E2F4E00C945D
S1130850F8076C017B018A01FC01178216828381EF
S113086081FFCCC1CE0101963C01F6019381F701D1
S113087093FD859193FF81917F01882309F4BAC187
S1130880853239F493FD859193FF81917F018532FF
S113089029F4B60190E00E945E07E7CF912C212C49
S11308A0312CFFE1F315D8F08B3279F038F4803233
S11308B079F08332A1F4232D20611DC08D3261F0C3
S11308C0803369F4232D216016C0832D8260382E75
S11308D0E32DE4603E2E2AC0F32DF8601DC037FCE2
S11308E02DC020ED280F2A3040F08E32B9F436FCAA
S11308F081C1232D2064322E19C036FE06C08AE041
S1130900989E200D1124922E11C0EAE02E9E200DF7
S11309101124222EF32DF0623F2E08C08C3621F4D0
S1130920832D8068382E02C0883641F4F70193FD88
S1130930859193FF81917F018111B3CF982F9F7D82
S11309409554933028F40C5F1F4F9FE399830DC097
S1130950833631F0833771F0833509F059C021C0F3
S1130960F801808189830E5F1F4F88248394912C22
S1130970530113C02801F2E04F0E511CF801A0806E
S1130980B18036FE03C0692D70E002C06FEF7FEFC7
S1130990C5010E9453074C018201F32DFF773F2EBE
S11309A016C0280122E0420E511CF801A080B1803B
S11309B036FE03C0692D70E002C06FEF7FEFC50102
S11309C00E9441074C01F32DF0683F2E820133FC55
S11309D01BC0822D90E088169906B0F4B60180E21F
S11309E090E00E945E072A94F4CFF50137FC8591CC
S11309F037FE81915F01B60190E00E945E072110ED
S1130A002A9421E0821A91088114910471F7E8C0B4
S1130A10843611F0893641F5F80137FE07C060814C
S1130A207181828193810C5F1F4F08C06081718145
S1130A30072E000C880B990B0E5F1F4FF32DFF76CA
S1130A403F2E97FF09C090958095709561957F4FD3
S1130A508F4F9F4FF0683F2E2AE030E0A3010E94A1
S1130A609A07882E861845C0853731F4232D2F7EAA
S1130A70B22E2AE030E025C0932D997FB92E8F360F
S1130A80C1F018F4883579F0B5C0803719F088378B
S1130A9021F0B0C0E92FE061BE2EB4FE0DC0FB2DE5
S1130AA0F460BF2E09C034FE0AC0292F2660B22E7E
S1130AB006C028E030E005C020E130E002C020E1BB
S1130AC032E0F801B7FE07C06081718182819381B1
S1130AD00C5F1F4F06C06081718180E090E00E5F63
S1130AE01F4FA3010E949A07882E8618FB2DFF77BB
S1130AF03F2E36FE0DC0232D2E7FA22E891458F4CE
S1130B0034FE0BC032FC09C0832D8E7EA82E05C096
S1130B10B82CA32C03C0B82C01C0B92CA4FE0FC060
S1130B20FE01E80DF11D8081803321F49A2D997E18
S1130B30A92E09C0A2FE06C0B394B39404C08A2DA2
S1130B40867809F0B394A3FC11C0A0FE06C0B214C9
S1130B5088F4280C922C9B180EC0B21460F4B601D1
S1130B6080E290E00E945E07B394F7CFB21418F4C9
S1130B702B1802C0982C212CA4FE10C0B60180E3CF
S1130B8090E00E945E07A2FE17C0A1FC03C088E7A4
S1130B9090E002C088E590E0B6010CC08A2D86780A
S1130BA059F0A1FE02C08BE201C080E2A7FC8DE2F5
S1130BB0B60190E00E945E07891438F4B60180E320
S1130BC090E00E945E079A94F7CF8A94F301E80DAF
S1130BD0F11D8081B60190E00E945E078110F5CF7F
S1130BE0222009F442CEB60180E290E00E945E0722
S1130BF02A94F6CFF6018681978102C08FEF9FEF8A
S1130C002B96E2E10C9414080F931F93CF93DF9378
S1130C10869F8001879F100D969F100D1124C80197
S1130C200E942006EC01009729F0A80160E070E022
S1130C300E944C07CE01DF91CF911F910F9108952F
S1130C400F931F93CF93DF938230910510F482E0CA
S1130C5090E0E091A801F091A90120E030E0A0E04B
S1130C60B0E0309719F14081518102811381481716
S1130C705907C8F08417950769F4109731F0129654
S1130C800C93129713961C9327C00093A8011093FA
S1130C90A90122C02115310519F04217530718F490
S1130CA09A01BD01EF01DF01F801DBCF2115310508
S1130CB0F9F0281B390B2430310580F48A819B819B
S1130CC06115710521F0FB019383828304C0909325
S1130CD0A9018093A801FE01329644C0FE01E20FEF
S1130CE0F31F8193919322503109398328833AC0A9
S1130CF02091A6013091A701232B41F420910201F8
S1130D00309103013093A7012093A60120910001A3
S1130D10309101012115310541F42DB73EB74091C1
S1130D20040150910501241B350BE091A601F091BB
S1130D30A701E217F307A0F42E1B3F0B281739076E
S1130D4078F0AC014E5F5F4F2417350748F04E0F23
S1130D505F1F5093A7014093A6018193919302C012
S1130D60E0E0F0E0CF01DF91CF911F910F91089562
S1130D70CF93DF93009709F481C0FC01329713826B
S1130D801282A091A801B091A901109781F4208149
S1130D903181820F931F2091A6013091A70128175A
S1130DA0390751F5F093A701E093A60167C0ED015F
S1130DB020E030E0CE17DF0740F44A815B819E01DA
S1130DC041155105F1F0EA01F5CFD383C283408187
S1130DD05181840F951FC817D90759F488819981C7
S1130DE0840F951F0296918380838A819B819383CC
S1130DF082832115310529F4F093A901E093A80118
S1130E003DC0E901FB83EA8349915991C40FD51F81
S1130E10EC17FD0761F480819181840F951F029680
S1130E20E90199838883828193819B838A83E0E0AB
S1130E30F0E012968D919C911397009719F0FD01A3
S1130E40DC01F7CF8D919C9111979D012E5F3F4F4F
S1130E50820F931F2091A6013091A701281739070B
S1130E6069F4309729F41092A9011092A80102C0E4
S1130E7013821282B093A701A093A601DF91CF91B0
S1130E800895FC010590615070400110D8F78095D9
S1130E9090958E0F9F1F0895DC0101C06D93415002
S1130EA05040E0F70895FC0161507040019001103A
S1130EB0D8F7809590958E0F9F1F08950F931F93D9
S1130EC0CF93DF93FB01238121FD03C08FEF9FEFBD
S1130ED02CC022FF16C046815781248135814217D8
S1130EE0530744F4A081B1819D012F5F3F4F3183AB
S1130EF020838C93268137812F5F3F4F378326834E
S1130F0014C08B01EC01FB010084F185E02D0995EF
S1130F10892BE1F6D80116968D919C91179701962D
S1130F2017969C938E931697CE01DF91CF911F91C4
S1130F300F910895FA01AA27283051F1203181F147
S1130F40E8946F936E7F6E5F7F4F8F4F9F4FAF4FCD
S1130F50B1E03ED0B4E03CD0670F781F891F9A1FE0
S1130F60A11D680F791F8A1F911DA11D6A0F711D94
S1130F70811D911DA11D20D009F468943F912AE0A0
S1130F80269F11243019305D3193DEF6CF01089588
S1130F90462F4770405D4193B3E00FD0C9F7F6CFB9
S1130FA0462F4F70405D4A3318F0495D31FD405281
S1130FB0419302D0A9F7EACFB4E0A6959795879517
S1130FC077956795BA95C9F70097610571050895F6
S1130FD09B01AC010A2E06945795479537952795A2
S1130FE0BA95C9F7620F731F841F951FA01D08953A
S1130FF02F923F924F925F926F927F928F929F9225
S1131000AF92BF92CF92DF92EF92FF920F931F9312
S1131010CF93DF93CDB7DEB7CA1BDB0B0FB6F894C3
S1131020DEBF0FBECDBF09942A88398848885F8403
S11310306E847D848C849B84AA84B984C884DF8074
S1131040EE80FD800C811B81AA81B981CE0FD11D58
S11310500FB6F894DEBF0FBECDBFED010895F8942E
S1051060FFCFBC
S11310620000AA0120004A6F79737469636B2069D6
S1131072732055500D004A6F79737469636B20694C
S11310827320444F574E0D004A6F79737469636B32
S1131092206973204C4546540D004A6F7973746974
S11310A2636B2069732052494748540D004A6F7993
S11310B2737469636B206973204E45555452414CD5
S11310C20D004A6F79566572743A202564204A6F7E
S11310D279486F72697A3A2025642C20536C6964CA
S11310E265724C6566743A2025642C20536C6964DD
S11310F2657252696768743A202564200A0D0000FB
S9030000FC
