:100000000C94B4010C94D1010C94D1010C94D10145
:100010000C94D1010C94D1010C94D1010C94D10118
:100020000C94D1010C94D1010C94D1010C94D10108
:100030000C94D1010C94D1010C94D1010C94D101F8
:100040000C94D1010C94D1010C94D1010C94D101E8
:100050000C94D1010C94D1010C94D1010C94D101D8
:100060000C94D1010C94D1010C94D1010C94D101C8
:10007000000000000000000000065F5F06000000B6
:100080000007070007070000147F7F147F7F14001C
:10009000242E6B6B3A120000466630180C66620024
:1000A000307A4F5D377A48000407030000000000F3
:1000B000001C3E63410000000041633E1C00000044
:1000C000082A3E1C1C3E2A0808083E3E080800007C
:1000D00000A0E06000000000080808080808000010
:1000E00000006060000000006030180C0603010092
:1000F0003E7F594D7F3E000042427F7F40400000DE
:10010000627359496F660000226349497F360000D7
:10011000181C16137F7F1000276745457D390000A6
:100120003C7E4B4979300000036371190F070000D2
:10013000367F49497F360000064F49693F1E00005F
:1001400000006C6C0000000000A0EC6C00000000DF
:10015000081C366341000000141414141414000029
:10016000004163361C080000020351590F060000CD
:100170003E7F415D5D1F1E007C7E13137E7C000070
:10018000417F7F49497F36001C3E63414163220025
:10019000417F7F41637F1C00417F7F495D41630058
:1001A000417F7F491D0103001C3E63415173720072
:1001B0007F7F08087F7F000000417F7F41000000B3
:1001C000307040417F3F0100417F7F081C77630012
:1001D000417F7F41406070007F7F060C067F7F007B
:1001E0007F7F060C187F7F001C3E6341633E1C002E
:1001F000417F7F49090F06001E3F21717F5E00008D
:10020000417F7F19396F460026674D597B320000C8
:1002100003417F7F410300007F7F40407F7F0000DC
:100220001F3F60603F1F00007F7F3018307F7F00DE
:1002300063771C081C776300074F78784F0700002E
:100240006773594D47637100007F7F414100000093
:100250000103060C183060000041417F7F00000060
:10026000080C0603060C0800808080808080808057
:100270000000030704000000207454543C78400040
:10028000413F7F44447C3800387C44446C28000063
:10029000307848493F7F4000387C54545C18000057
:1002A000487E7F490302000098BCA4A4F87C0400A7
:1002B000417F7F08047C780000447D7D4000000081
:1002C00040C484FD7D000000417F7F10386C4400F5
:1002D00000417F7F400000007C7C0C180C7C780083
:1002E0007C7C04047C780000387C44447C3800002A
:1002F00084FCF8A4243C1800183C24A4F8FC8400D6
:10030000447C78441C180000485C54547424000059
:1003100000043E7F442400003C7C40403C7C400084
:100320001C3C60603C1C00003C7C6030607C3C00FD
:10033000446C3810386C44009CBCA0A0FC7C0000CD
:100340004C64745C4C64000008083E774141000036
:1003500000000077770000004141773E0808000068
:10036000020301030203010011241FBECFEFD4E0FA
:10037000DEBFCDBF11E0A0E0B1E0E0EDFFE002C0E4
:1003800005900D92A834B107D9F721E0A8E4B1E0B7
:1003900001C01D92A235B207E1F70E9431040C940E
:1003A000E6070C94000082E090E090938700809331
:1003B000860081B3806181BBEAE8F0E080818860DB
:1003C0008083ABE8B0E08C9180648C938081816005
:1003D000808386B386B308951092001420E030E045
:1003E00004C0909100142F5F3F4F482F50E04217F8
:1003F0005307BCF7892F089590E0803A91057CF06F
:100400009C01205A310944E6429FC001439F900D50
:1004100011246FE570E00E942F06CB010895803A09
:100420009105B4F4813491059CF020EA30E0281B5A
:10043000390B44E6429FC001439F900D11246FE5A4
:1004400070E00E942F0688279927861B970B089536
:10045000813491051CF48CE99FEF089584E690E0C7
:10046000089590E0833A91057CF09C01235A31096C
:1004700044E6429FC001439F900D11246CE570E05B
:100480000E942F06CB010895833A9105B4F4873476
:1004900091059CF023EA30E0281B390B44E6429F8B
:1004A000C001439F900D11246CE570E00E942F065F
:1004B00088279927861B970B0895873491051CF48C
:1004C0008CE99FEF089584E690E00895682F70E02E
:1004D00080E090E00E94340520E030E04FE753E4F4
:1004E0000E948C0420E030E048EC52E40E94C205F7
:1004F0000E94FE04CB0108959B01772324F4222758
:100500003327261B370BAC01992324F444275527A6
:10051000481B590B2417350744F0623371056CF4FE
:100520006F3C7F4F64F481E00895823391054CF471
:100530008F3C9F4F44F483E0089580E0089582E06B
:10054000089584E0089582E00895EF92FF920F935A
:100550001F93CF93DF93EC017B0180E00E94EC01BD
:100560000E9431028C0181E00E94EC010E94FC019A
:10057000B8010E947C029881911135C0882319F03E
:100580008130C9F033C0F7018081918183309105BA
:100590006CF10E94BA03F7018081918101979183E8
:1005A000808360E070E00E94AF0381E088838EE387
:1005B0000E94E8031BC0F70180819181873091057B
:1005C000ACF40E94BA03F701808191810196918376
:1005D000808360E070E00E94AF0381E088838EE357
:1005E0000E94E80303C0823009F41882DF91CF91A2
:1005F0001F910F91FF90EF90089568E270E080E006
:1006000090E00E94AF038AE091E00E9407046AE054
:1006100070E082E090E00E94AF0384E191E00E94EC
:1006200007046AE070E083E090E00E94AF038DE190
:1006300091E00E9407046AE070E084E090E00E948C
:10064000AF0387E291E00E9407046AE070E085E072
:1006500090E00E94AF0380E391E00E9407046AE00B
:1006600070E086E090E00E94AF038BE391E00E948F
:1006700007040895E0910801F0910901808308952D
:100680008EEA0E943A0381EA0E943A038AED0E94B0
:100690003A0382E10E943A0388EC0E943A0388EA16
:1006A0000E943A038FE30E943A0385ED0E943A03C9
:1006B00080E80E943A0381E80E943A0380E50E94A4
:1006C0003A0389ED0E943A0381E20E943A0380E2F4
:1006D0000E943A0382E00E943A038BED0E943A03A3
:1006E00080E30E943A038DEA0E943A0380E00E9470
:1006F0003A0384EA0E943A0386EA0E943A038FEAA8
:100700000E943A030895E0910601F0910701808369
:1007100008958830910518F480550E943A03089591
:10072000CF93DF93EC018F709078992324F4019795
:10073000806F9F6F01960E943A03CE01DD230CF477
:100740000F96959587959595879595958795959508
:100750008795805F0E943A03DF91CF910895CF93F0
:10076000DF93EB010E948903CE010E949003DF9189
:10077000CF910895CF93DF9360E070E00E94AF03C4
:10078000C0E0D0E004C080E00E9483032196C0381E
:10079000D105CCF3DF91CF910895CF93DF9360E043
:1007A00070E080E090E00E94AF03C0E0D0E004C0C1
:1007B000CE010E94BA032196C830D105CCF360E087
:1007C00070E080E090E00E94AF03DF91CF91089548
:1007D0001F93CF93DF93182FC0E0D0E011C0E12F1B
:1007E000F0E0B097EE0FFF1FEE0FFF1FEE0FFF1FA1
:1007F000EC0FFD1FE059FF4F84910E948303219667
:10080000C830D10564F3DF91CF911F910895EF9225
:10081000FF920F931F93CF93DF937C01C0E0D0E052
:1008200001C02196F701EC0FFD1F80818111F9CFE6
:1008300000E010E008C0F701E00FF11F80810E9486
:10084000E8030F5F1F4F0C171D07ACF3DF91CF912B
:100850001F910F91FF90EF90089585B7806885BF35
:100860000895CF93DF9300D000D01F92CDB7DEB7AD
:1008700087B38C7F87BB8FE190E00E947E040E944B
:100880002D040E94D3010E9485040E94400382E04F
:1008900090E09A8389830E94CD031B8260E070E020
:1008A00089819A810E94AF0385E491E00E94070448
:1008B00082E00E94EC018D8383E00E94EC018C8336
:1008C0008C810E9466028D810E946602BE016F5F6C
:1008D0007F4FCE0103960E94A5020E94FD028FEF7A
:1008E0009FE20197F1F700C00000E2CF5D9BFECFD1
:1008F0008CB908955F9BFECF8CB1089590BD89B9E6
:1009000088E18AB98EE880BD08956AE774E086E7D9
:1009100094E00E94570608950E94A0040C94880554
:100920000E94810558F00E947A0540F029F45F3F4B
:1009300029F00C94710551110C94BC050C947705A9
:100940000E94990568F39923B1F3552391F3951B00
:10095000550BBB27AA2762177307840738F09F5FE0
:100960005F4F220F331F441FAA1FA9F335D00E2E4D
:100970003AF0E0E832D091505040E695001CCAF7BA
:100980002BD0FE2F29D0660F771F881FBB1F26177D
:1009900037074807AB07B0E809F0BB0B802DBF0154
:1009A000FF2793585F4F3AF09E3F510578F00C9423
:1009B00071050C94BC055F3FE4F3983ED4F3869533
:1009C00077956795B795F7959F5FC9F7880F911D44
:1009D0009695879597F90895E1E0660F771F881F30
:1009E000BB1F621773078407BA0720F0621B730BE3
:1009F000840BBA0BEE1F88F7E09508950E94050559
:100A00006894B1110C94BC0508950E94A10588F06A
:100A10009F5798F0B92F9927B751B0F0E1F0660FC2
:100A2000771F881F991F1AF0BA95C9F714C0B13003
:100A300091F00E94BB05B1E008950C94BB05672FAF
:100A4000782F8827B85F39F0B93FCCF38695779532
:100A50006795B395D9F73EF490958095709561951B
:100A60007F4F8F4F9F4F0895E89409C097FB3EF446
:100A700090958095709561957F4F8F4F9F4F9923EB
:100A8000A9F0F92F96E9BB279395F6958795779569
:100A90006795B795F111F8CFFAF4BB0F11F460FF29
:100AA0001BC06F5F7F4F8F4F9F4F16C0882311F081
:100AB00096E911C0772321F09EE8872F762F05C095
:100AC000662371F096E8862F70E060E02AF09A9530
:100AD000660F771F881FDAF7880F9695879597F925
:100AE000089597F99F6780E870E060E008959FEFB0
:100AF00080EC089500240A941616170618060906B5
:100B0000089500240A941216130614060506089583
:100B1000092E0394000C11F4882352F0BB0F40F40B
:100B2000BF2B11F460FF04C06F5F7F4F8F4F9F4F4B
:100B3000089557FD9058440F551F59F05F3F71F0CD
:100B40004795880F97FB991F61F09F3F79F0879534
:100B50000895121613061406551FF2CF4695F1DFBD
:100B600008C0161617061806991FF1CF869571054D
:100B7000610508940895E894BB2766277727CB0181
:100B800097F908950E94D5050C9488050E947A056E
:100B900038F00E94810520F0952311F00C94710526
:100BA0000C94770511240C94BC050E94990570F3F0
:100BB000959FC1F3950F50E0551F629FF001729F02
:100BC000BB27F00DB11D639FAA27F00DB11DAA1F11
:100BD000649F6627B00DA11D661F829F2227B00D5E
:100BE000A11D621F739FB00DA11D621F839FA00DE9
:100BF000611D221F749F3327A00D611D231F849F39
:100C0000600D211D822F762F6A2F11249F5750408F
:100C10009AF0F1F088234AF0EE0FFF1FBB1F661F0A
:100C2000771F881F91505040A9F79E3F510580F0D3
:100C30000C9471050C94BC055F3FE4F3983ED4F32B
:100C4000869577956795B795F795E7959F5FC1F777
:100C5000FE2B880F911D9695879597F9089597FB20
:100C6000072E16F4009407D077FD09D00E944306A2
:100C700007FC05D03EF4909581959F4F089570959F
:100C800061957F4F0895AA1BBB1B51E107C0AA1FA6
:100C9000BB1FA617B70710F0A61BB70B881F991F1D
:100CA0005A95A9F780959095BC01CD0108950F93B1
:100CB0001F93CF93DF93009731F46115710519F4F9
:100CC00080E090E03AC08B01EC016EE070E081E0E2
:100CD00090E00E94A206FC01892B91F380E88383B7
:100CE0000115110571F01387028781E883838091D4
:100CF000480190914901892B21F4F0934901E09337
:100D000048012097C9F0D187C0878381826083839F
:100D100080914A0190914B01892B71F4F0934B0122
:100D2000E0934A0180914C0190914D01892B21F46F
:100D3000F0934D01E0934C01CF01DF91CF911F91D2
:100D40000F9108950F931F93CF93DF93869F800198
:100D5000879F100D969F100D1124C8010E94BE069A
:100D6000EC01009729F0A80160E070E00E94DF0725
:100D7000CE01DF91CF911F910F9108950F931F9393
:100D8000CF93DF938230910510F482E090E0E09100
:100D90005001F091510120E030E0A0E0B0E0309748
:100DA00019F1408151810281138148175907C8F018
:100DB0008417950769F4109731F012960C931297E7
:100DC00013961C9327C0009350011093510122C029
:100DD0002115310519F04217530718F49A01BD0186
:100DE000EF01DF01F801DBCF21153105F9F0281BF8
:100DF000390B2430310580F48A819B81611571059E
:100E000021F0FB019383828304C09093510180936E
:100E10005001FE01329644C0FE01E20FF31F8193A0
:100E2000919322503109398328833AC020914E0191
:100E300030914F01232B41F42091020130910301A5
:100E400030934F0120934E01209100013091010118
:100E50002115310541F42DB73EB740910401509161
:100E60000501241B350BE0914E01F0914F01E21773
:100E7000F307A0F42E1B3F0B2817390778F0AC01BD
:100E80004E5F5F4F2417350748F04E0F5F1F50939A
:100E90004F0140934E018193919302C0E0E0F0E056
:100EA000CF01DF91CF911F910F910895CF93DF93E1
:100EB000009709F481C0FC01329713821282A0913D
:100EC0005001B0915101109781F420813181820F3E
:100ED000931F20914E0130914F012817390751F58A
:100EE000F0934F01E0934E0167C0ED0120E030E048
:100EF000CE17DF0740F44A815B819E014115510501
:100F0000F1F0EA01F5CFD383C28340815181840F90
:100F1000951FC817D90759F488819981840F951FA7
:100F20000296918380838A819B819383828321159A
:100F3000310529F4F0935101E09350013DC0E901DE
:100F4000FB83EA8349915991C40FD51FEC17FD0724
:100F500061F480819181840F951F0296E901998344
:100F60008883828193819B838A83E0E0F0E01296FC
:100F70008D919C911397009719F0FD01DC01F7CF3B
:100F80008D919C9111979D012E5F3F4F820F931F72
:100F900020914E0130914F012817390769F430979D
:100FA00029F4109251011092500102C01382128252
:100FB000B0934F01A0934E01DF91CF910895DC01D2
:100FC00001C06D9341505040E0F70895F894FFCF71
:100FD0000000520120000012001050494E472050DE
:100FE0004F4E47004E65772047616D65004C6F613D
:100FF000642047616D650053657474696E677300A2
:1010000053636F7265626F61726400517569742019
:0810100047616D65003E000020
:00000001FF
