S00F00004279676765726E2E7372656347
S11300000C94B4010C94D1010C94D1010C94D10141
S11300100C94D1010C94D1010C94D1010C94D10114
S11300200C94D1010C94D1010C94D1010C94D10104
S11300300C94D1010C94D1010C94D1010C94D101F4
S11300400C94D1010C94D1010C94D1010C94D101E4
S11300500C94D1010C94D1010C94D1010C94D101D4
S11300600C94D1010C94D1010C94D1010C94D101C4
S1130070000000000000000000065F5F06000000B2
S11300800007070007070000147F7F147F7F140018
S1130090242E6B6B3A120000466630180C66620020
S11300A0307A4F5D377A48000407030000000000EF
S11300B0001C3E63410000000041633E1C00000040
S11300C0082A3E1C1C3E2A0808083E3E0808000078
S11300D000A0E0600000000008080808080800000C
S11300E000006060000000006030180C060301008E
S11300F03E7F594D7F3E000042427F7F40400000DA
S1130100627359496F660000226349497F360000D3
S1130110181C16137F7F1000276745457D390000A2
S11301203C7E4B4979300000036371190F070000CE
S1130130367F49497F360000064F49693F1E00005B
S113014000006C6C0000000000A0EC6C00000000DB
S1130150081C366341000000141414141414000025
S1130160004163361C080000020351590F060000C9
S11301703E7F415D5D1F1E007C7E13137E7C00006C
S1130180417F7F49497F36001C3E63414163220021
S1130190417F7F41637F1C00417F7F495D41630054
S11301A0417F7F491D0103001C3E6341517372006E
S11301B07F7F08087F7F000000417F7F41000000AF
S11301C0307040417F3F0100417F7F081C7763000E
S11301D0417F7F41406070007F7F060C067F7F0077
S11301E07F7F060C187F7F001C3E6341633E1C002A
S11301F0417F7F49090F06001E3F21717F5E000089
S1130200417F7F19396F460026674D597B320000C4
S113021003417F7F410300007F7F40407F7F0000D8
S11302201F3F60603F1F00007F7F3018307F7F00DA
S113023063771C081C776300074F78784F0700002A
S11302406773594D47637100007F7F41410000008F
S11302500103060C183060000041417F7F0000005C
S1130260080C0603060C0800808080808080808053
S11302700000030704000000207454543C7840003C
S1130280413F7F44447C3800387C44446C2800005F
S1130290307848493F7F4000387C54545C18000053
S11302A0487E7F490302000098BCA4A4F87C0400A3
S11302B0417F7F08047C780000447D7D400000007D
S11302C040C484FD7D000000417F7F10386C4400F1
S11302D000417F7F400000007C7C0C180C7C78007F
S11302E07C7C04047C780000387C44447C38000026
S11302F084FCF8A4243C1800183C24A4F8FC8400D2
S1130300447C78441C180000485C54547424000055
S113031000043E7F442400003C7C40403C7C400080
S11303201C3C60603C1C00003C7C6030607C3C00F9
S1130330446C3810386C44009CBCA0A0FC7C0000C9
S11303404C64745C4C64000008083E774141000032
S113035000000077770000004141773E0808000064
S1130360020301030203010011241FBECFEFD4E0F6
S1130370DEBFCDBF11E0A0E0B1E0EAE7F0E102C0EA
S113038005900D92AC37B107D9F721E0ACE7B1E0A5
S113039001C01D92A638B207E1F70E945C030C94D9
S11303A03B080C94000082E090E0909387008093D7
S11303B0860081B3806181BBEAE8F0E080818860D7
S11303C08083ABE8B0E08C9180648C938081816001
S11303D0808386B386B30895CF93C82F88B38F7E66
S11303E088BB83E00E944F038C2F0E944F030E941E
S11303F0530398B3906198BBCF9108951F93CF9303
S1130400DF93182FD62FC42F88B38F7E88BB85E047
S11304100E944F03812F0E944F038D2F0E944F0390
S11304208C2F0E944F0388B3806188BBDF91CF91EA
S11304301F91089588B38F7E88BB80EC0E944F0380
S113044088B3806188BB08950E944A030E941A02FF
S113045083ED90E30197F1F700C000008EE00E9465
S1130460EC01E3EDF0E33197F1F700C00000982FC1
S1130470907E903871F01F928F938AE091E09F9361
S11304808F930E9419040F900F900F900F9081E0AA
S113049008951F928F9384E491E09F938F930E9419
S11304A019040F900F900F900F9080E00895E09141
S11304B00801F0910901808308958EEA0E94570291
S11304C081EA0E9457028AED0E94570282E10E944B
S11304D0570288EC0E94570288EA0E9457028FE371
S11304E00E94570285ED0E94570280E80E9457023D
S11304F081E80E94570280E50E94570289ED0E941C
S1130500570281E20E94570280E20E94570282E071
S11305100E9457028BED0E94570280E30E9457020B
S11305208DEA0E94570280E00E94570284EA0E94EA
S1130530570286EA0E9457028FEA0E9457020895E2
S1130540E0910601F09107018083089588309105B8
S113055018F480550E9457020895CF93DF93EC015D
S11305608F709078992324F40197806F9F6F019680
S11305700E945702CE01DD230CF40F9695958795C2
S1130580959587959595879595958795805F0E9414
S11305905702DF91CF910895CF93DF93EB010E942F
S11305A0A602CE010E94AD02DF91CF910895CF93B0
S11305B0DF9360E070E00E94CC02C0E0D0E004C0B1
S11305C080E00E94A0022196C038D105CCF3DF91CF
S11305D0CF910895CF93DF9360E070E080E090E0E6
S11305E00E94CC02C0E0D0E004C0CE010E94D70239
S11305F02196C830D105CCF360E070E080E090E053
S11306000E94CC02DF91CF9108951F93CF93DF9383
S1130610182FC0E0D0E011C0E12FF0E0B097EE0F4A
S1130620FF1FEE0FFF1FEE0FFF1FEC0FFD1FE05922
S1130630FF4F84910E94A0022196C830D10564F333
S1130640DF91CF911F910895EF92FF920F931F9323
S1130650CF93DF937C01C0E0D0E001C02196F70185
S1130660EC0FFD1F80818111F9CF00E010E008C07C
S1130670F701E00FF11F80810E9405030F5F1F4FF8
S11306800C171D07ACF3DF91CF911F910F91FF90D1
S1130690EF90089580EB87BB81E58DB908958FB9FC
S11306A0779BFECF08958AE20E944F038FB108958D
S11306B085B7806885BF089587B38C7F87BB8FE13A
S11306C090E00E94C0030E9458030E94D3010E943C
S11306D0C7030E945D020E9424020E94EA0260E0B5
S11306E070E082E090E00E94CC028BE691E00E94F0
S11306F024030E9453032FEF8FEF9EE0215080408C
S11307009040E1F700C000008EE00E94EC011F92CF
S11307108F93CDE6D1E0DF93CF930E9419049FEF2E
S11307202FEF8EE0915020408040E1F700C00000A0
S113073040E460EE8FE00E94FE018EE00E94EC0136
S11307401F928F93DF93CF930E9419048FEF9FEF33
S11307502EE0815090402040E1F700C000008DB7AA
S11307609EB708960FB6F8949EBF0FBE8DBFC1CF3B
S11307705D9BFECF8CB908955F9BFECF8CB108952D
S113078090BD89B988E18AB98EE880BD08956CEB83
S113079073E088EB93E00E94CE0308950F931F93B8
S11307A0CF93DF93009731F46115710519F480E05C
S11307B090E03AC08B01EC016EE070E081E090E0E3
S11307C00E941006FC01892B91F380E883830115B4
S11307D0110571F01387028781E8838380917C017E
S11307E090917D01892B21F4F0937D01E0937C01AC
S11307F02097C9F0D187C0878381826083838091E9
S11308007E0190917F01892B71F4F0937F01E09335
S11308107E018091800190918101892B21F4F093D4
S11308208101E0938001CF01DF91CF911F910F915E
S11308300895A0E0B0E0EFE1F4E00C941408AE01F8
S11308404B5F5F4FFA0161917191AF0180917E011D
S113085090917F010E942F04E2E00C943008ABE0F9
S1130860B0E0E5E3F4E00C9404086C017B018A0138
S1130870FC0117821682838181FFCCC1CE010196CF
S11308803C01F6019381F70193FD859193FF8191DA
S11308907F01882309F4BAC1853239F493FD859127
S11308A093FF81917F01853229F4B60190E00E9483
S11308B06A07E7CF912C212C312CFFE1F315D8F0F6
S11308C08B3279F038F4803279F08332A1F4232D1D
S11308D020611DC08D3261F0803369F4232D2160C5
S11308E016C0832D8260382EE32DE4603E2E2AC08C
S11308F0F32DF8601DC037FC2DC020ED280F2A30E1
S113090040F08E32B9F436FC81C1232D2064322E9E
S113091019C036FE06C08AE0989E200D1124922E3E
S113092011C0EAE02E9E200D1124222EF32DF06238
S11309303F2E08C08C3621F4832D8068382E02C0E7
S1130940883641F4F70193FD859193FF81917F01EE
S11309508111B3CF982F9F7D9554933028F40C5F69
S11309601F4F9FE399830DC0833631F0833771F0B5
S1130970833509F059C021C0F801808189830E5F55
S11309801F4F88248394912C530113C02801F2E053
S11309904F0E511CF801A080B18036FE03C0692DB2
S11309A070E002C06FEF7FEFC5010E945F074C014A
S11309B08201F32DFF773F2E16C0280122E0420E5C
S11309C0511CF801A080B18036FE03C0692D70E08F
S11309D002C06FEF7FEFC5010E944D074C01F32D5C
S11309E0F0683F2E820133FC1BC0822D90E08816F4
S11309F09906B0F4B60180E290E00E946A072A9456
S1130A00F4CFF50137FC859137FE81915F01B60182
S1130A1090E00E946A0721102A9421E0821A91082A
S1130A208114910471F7E8C0843611F0893641F5D8
S1130A30F80137FE07C060817181828193810C5F68
S1130A401F4F08C060817181072E000C880B990B21
S1130A500E5F1F4FF32DFF763F2E97FF09C0909531
S1130A608095709561957F4F8F4F9F4FF0683F2E13
S1130A702AE030E0A3010E94A607882E861845C00C
S1130A80853731F4232D2F7EB22E2AE030E025C0A5
S1130A90932D997FB92E8F36C1F018F4883579F0EB
S1130AA0B5C0803719F0883721F0B0C0E92FE06174
S1130AB0BE2EB4FE0DC0FB2DF460BF2E09C034FE63
S1130AC00AC0292F2660B22E06C028E030E005C0F7
S1130AD020E130E002C020E132E0F801B7FE07C0B7
S1130AE060817181828193810C5F1F4F06C0608198
S1130AF0718180E090E00E5F1F4FA3010E94A60762
S1130B00882E8618FB2DFF773F2E36FE0DC0232D31
S1130B102E7FA22E891458F434FE0BC032FC09C077
S1130B20832D8E7EA82E05C0B82CA32C03C0B82C10
S1130B3001C0B92CA4FE0FC0FE01E80DF11D808197
S1130B40803321F49A2D997EA92E09C0A2FE06C0F5
S1130B50B394B39404C08A2D867809F0B394A3FCAB
S1130B6011C0A0FE06C0B21488F4280C922C9B1865
S1130B700EC0B21460F4B60180E290E00E946A07ED
S1130B80B394F7CFB21418F42B1802C0982C212C6C
S1130B90A4FE10C0B60180E390E00E946A07A2FEA2
S1130BA017C0A1FC03C088E790E002C088E590E08C
S1130BB0B6010CC08A2D867859F0A1FE02C08BE2E2
S1130BC001C080E2A7FC8DE2B60190E00E946A07B2
S1130BD0891438F4B60180E390E00E946A079A947D
S1130BE0F7CF8A94F301E80DF11D8081B60190E0FE
S1130BF00E946A078110F5CF222009F442CEB60183
S1130C0080E290E00E946A072A94F6CFF60186817A
S1130C10978102C08FEF9FEF2B96E2E10C9420089E
S1130C200F931F93CF93DF93869F8001879F100DAF
S1130C30969F100D1124C8010E942C06EC01009708
S1130C4029F0A80160E070E00E945807CE01DF910E
S1130C50CF911F910F9108950F931F93CF93DF931B
S1130C608230910510F482E090E0E0918401F091EB
S1130C70850120E030E0A0E0B0E0309719F1408138
S1130C8051810281138148175907C8F084179507C9
S1130C9069F4109731F012960C93129713961C93E3
S1130CA027C0009384011093850122C021153105CA
S1130CB019F04217530718F49A01BD01EF01DF013F
S1130CC0F801DBCF21153105F9F0281B390B24304D
S1130CD0310580F48A819B816115710521F0FB0146
S1130CE09383828304C09093850180938401FE01E1
S1130CF0329644C0FE01E20FF31F81939193225078
S1130D003109398328833AC02091820130918301CB
S1130D10232B41F42091020130910301309383018C
S1130D2020938201209100013091010121153105A8
S1130D3041F42DB73EB74091040150910501241BA5
S1130D40350BE0918201F0918301E217F307A0F4DF
S1130D502E1B3F0B2817390778F0AC014E5F5F4F0D
S1130D602417350748F04E0F5F1F509383014093BB
S1130D7082018193919302C0E0E0F0E0CF01DF9122
S1130D80CF911F910F910895CF93DF93009709F4AA
S1130D9081C0FC01329713821282A0918401B09128
S1130DA08501109781F420813181820F931F209156
S1130DB08201309183012817390751F5F09383019B
S1130DC0E093820167C0ED0120E030E0CE17DF0739
S1130DD040F44A815B819E0141155105F1F0EA011D
S1130DE0F5CFD383C28340815181840F951FC817E7
S1130DF0D90759F488819981840F951F02969183AC
S1130E0080838A819B81938382832115310529F410
S1130E10F0938501E09384013DC0E901FB83EA83FB
S1130E2049915991C40FD51FEC17FD0761F48081D6
S1130E309181840F951F0296E901998388838281A9
S1130E4093819B838A83E0E0F0E012968D919C91DC
S1130E501397009719F0FD01DC01F7CF8D919C9158
S1130E6011979D012E5F3F4F820F931F20918201A6
S1130E70309183012817390769F4309729F41092C7
S1130E8085011092840102C013821282B0938301FF
S1130E90A0938201DF91CF910895FC0105906150E8
S1130EA070400110D8F7809590958E0F9F1F08957C
S1130EB0DC0101C06D9341505040E0F70895FC01FE
S1130EC06150704001900110D8F7809590958E0F75
S1130ED09F1F08950F931F93CF93DF93FB012381EB
S1130EE021FD03C08FEF9FEF2CC022FF16C0468167
S1130EF05781248135814217530744F4A081B1817D
S1130F009D012F5F3F4F318320838C93268137814E
S1130F102F5F3F4F3783268314C08B01EC01FB0105
S1130F200084F185E02D0995892BE1F6D801169608
S1130F308D919C911797019617969C938E93169773
S1130F40CE01DF91CF911F910F910895FA01AA2745
S1130F50283051F1203181F1E8946F936E7F6E5FF8
S1130F607F4F8F4F9F4FAF4FB1E03ED0B4E03CD0A6
S1130F70670F781F891F9A1FA11D680F791F8A1F89
S1130F80911DA11D6A0F711D811D911DA11D20D0F0
S1130F9009F468943F912AE0269F11243019305DAA
S1130FA03193DEF6CF010895462F4770405D41939B
S1130FB0B3E00FD0C9F7F6CF462F4F70405D4A33E8
S1130FC018F0495D31FD4052419302D0A9F7EACFB0
S1130FD0B4E0A6959795879577956795BA95C9F7DF
S1130FE000976105710508959B01AC010A2E0694D2
S1130FF05795479537952795BA95C9F7620F731F8B
S1131000841F951FA01D08952F923F924F925F92C7
S11310106F927F928F929F92AF92BF92CF92DF9204
S1131020EF92FF920F931F93CF93DF93CDB7DEB769
S1131030CA1BDB0B0FB6F894DEBF0FBECDBF0994FD
S11310402A88398848885F846E847D848C849B8454
S1131050AA84B984C884DF80EE80FD800C811B8162
S1131060AA81B981CE0FD11D0FB6F894DEBF0FBE91
S10D1070CDBFED010895F894FFCF01
S113107A000086012000001200104D435032353121
S113108A35206973204E4F5420696E20636F6E6653
S113109A696775726174696F6E206D6F646520612A
S11310AA6674657220726573657421203A20257806
S11310BA200A0D004D43503235313520696E69746A
S11310CA69616C697A656420636F72726563746CB2
S11310DA7921203A202578200A0D003E0043414E0A
S10F10EA535441543A202578200A0D008C
S9030000FC
