:0200000280007C
:10000000C0080020D5030800D1030800D103080070
:10001000D1030800D1030800D1030800000000004C
:10002000000000000000000000000000D1030800F4
:10003000D103080000000000D1030800290A0800CD
:10004000D1030800D1030800D1030800D103080040
:10005000D1030800D1030800D1030800D103080030
:10006000D50A0800D103080000000000D1030800F1
:10007000D1030800D1030800D103080000000000EC
:1000800000000000D1030800D1030800D1030800DC
:10009000D1030800D1030800D1030800D1030800F0
:1000A000D103080000000000D1030800D1030800BC
:1000B000D1030800D1030800D1030800D1030800D0
:1000C000D1030800D1030800D1030800D1030800C0
:1000D000D1030800D1030800D1030800D1030800B0
:1000E000D1030800D1030800D10308000903080068
:1000F000D103080010B5054C237833B9044B13B174
:100100000448AFF300800123237010BD34040020A5
:1001100000000000C80D08000C4B43B10C4810B59E
:100120000C49AFF300800C48036823B910BD0A489E
:10013000036833B97047094B002BF7D0BDE8104076
:100140001847064B002BF5D0184700BF00000000F1
:10015000C80D080038040020C80D08000000000089
:10016000084B80225A6001221A61074A0749C2F8E7
:100170000C11D2F8001141F02001C2F80011022246
:100180001A60704700000C4000060E402500001069
:10019000F0B45718082FD4BF00230123082998BFB3
:1001A000082A5CD80D46002B59D12E4A136823F03B
:1001B0000103136013692C4B4FF440745C641C6F93
:1001C00024F003041C6703245C605C66A3F50063F1
:1001D000264CC3F80C41D3F8004144F40064C3F842
:1001E00000415061002419E01E4801F110035B0139
:1001F000C2180026566000EB41124FF00056C2F8BC
:1002000008624FF08076C650D2F81C3243F40003E7
:10021000C2F81C3201238B401C430131B942E3DD9B
:1002200000230DE00F4901EB43124FF00050C2F8DC
:10023000080203F1100252014FF040708850013360
:10024000AB42EFDB074B5C604FF40061084A516042
:100250001A6842F001021A600020F0BC70470120C9
:10026000FBE700BF00400B40000E0E402B100010BB
:1002700000E100E008B502220121014B984708BDCA
:10028000910108004B0103F1402303F53023D3F81B
:10029000103213F4000F33D070B44B0103F140233C
:1002A00003F53023D3F81442D3F81822D3F80852B8
:1002B000C5F38A450580D3F81052C5F30345857010
:1002C000002303E0C618F270120A0133AB4205DACC
:1002D000032BF7DCC618F470240AF6E7094B01F18A
:1002E000100252014FF08070985003EB4111D1F889
:1002F0001C3243F40003C1F81C32002070BC70476C
:100300000120704700400B4010B584B0154B1C69AC
:1003100014F0060F19D014F0020F08D114F0040FD6
:100320000AD0022101A8104B9847002309E00121BF
:1003300001A80D4B9847F8E70C480D4B9847F4E798
:1003400001339DF806209342FADB14F0010F02D02E
:100350000122044B9A604FF40062064BC3F88421DB
:1003600004B010BD00400B4085020800AC0C080032
:10037000C508080000E100E00E4B0F4AC3F8E42076
:100380000E49D1F8002142F04002C1F800210C4A88
:10039000516841F480315160116F21F4803111674F
:1003A0005A6842F480325A601A6942F002021A61B5
:1003B000704700BF00800C400043414400060E40DF
:1003C00000100E40014B1862704700BF00800C40C7
:1003D000FEE7000008B5114B114A9A4209D00F4BB5
:1003E0000F4A03E011681960043304320D498B424F
:1003F000F8D30D4B02E000221A6004330B4A9342FB
:10040000F9D30B4B23F0604323F07F03094A936039
:10041000094B9847094B9847FEE700BF00000020B2
:10042000C80D08003404002034040020BC0400205F
:100430000000080000ED00E03D0B0800E5040800A6
:100440004FF48063204A136002F5007213601F4B63
:100450001B6A13F0807F07D11D4A1C4B1A621B4B8D
:100460009B6E13F0010FFAD01A4A184B1A62174B01
:100470009B6E13F4803FFAD0144A136B23F00303EE
:1004800043F001031363114B9B6E13F0080FFAD076
:10049000114A0E4B9A620D4B9B6E13F0020FFAD06D
:1004A00011220A4B1A63094B9B6E13F0080FFAD006
:1004B0001222064B1A63054B9B6E13F0080FFAD0FD
:1004C000064A074B1A607047000A0E4000060E40AD
:1004D0000908370009083701013F0D2000BD01055B
:1004E0000000002000B585B01A4B98474FF4004239
:1004F000194B5A60194B984719481A4B98471A4B91
:1005000098471A4B98471A4B98471A4B98471A4BDB
:100510004FF4C0121A601A611A63002101A8174B28
:1005200098479DF80700164B98479DF80810154806
:10053000154CA0479DF80A209DF809101348A047C4
:100540004FF4FA70124B9847124B984720211248EB
:10055000A047E2E741040800501A0E40490A08008B
:1005600065012900750208006101080011090800F1
:10057000790308009D050800000E0E408502080062
:1005800075090800D80C0800C5080800E80C080028
:10059000C5030800DD050800080D080038B50C4C3F
:1005A000226840F207610A43226023690B432361FA
:1005B0000225656340F2012323633220054B9847EF
:1005C0002563054A536943F4FF73536138BD00BF87
:1005D00000140E40090A080000120E402DE9F843ED
:1005E0000E4C012565634FF00409C4F834901420C3
:1005F000DFF83C80C0470A4FF96BC1F34701094857
:10060000094EB047C4F830901420C047F96BC1F3CD
:1006100047010648B0472563BDE8F88300140E4043
:1006200000120E40340D0800C50808004C0D0800EB
:10063000E909080008B5C8B2014B984708BD00BFDA
:10064000B10A08002DE9F04107460E46151E02DDED
:100650000A46002104E04FF020080EE0013101328B
:1006600010780028FAD1A94201DA6D1A00E00025BD
:1006700013F0020F06D14FF0200813F001040AD046
:10068000002410E04FF03008F7E7414638460D4BA4
:1006900098470134013D002DF7DC04E03846094B52
:1006A00098470134013631780029F7D105E04146F9
:1006B0003846044B98470134013D002DF7DC2046B5
:1006C000BDE8F08135060800F0B585B007460C9806
:1006D00051B11E460C4613B10A2A12D0002604ADB1
:1006E000002305F8013D18E030238DF80430002385
:1006F0008DF805300B9B0A9A01A938461B4CA04780
:1007000029E0002901DB0026E9E74C420126E6E763
:10071000303305F8013DB4FBF2F44CB1B4FBF2F315
:1007200002FB1343092BF3DDA0F13A010B44EFE781
:1007300056B10A9B1BB10B9B13F0020F0DD12D2359
:1007400005F8013C013D00260B9B0A9A29463846D4
:10075000064CA047304405B0F0BD2D213846044B6F
:1007600098470A9B013B0A93EEE700BF4506080045
:1007700035060800F0B589B006460C4605920025FE
:1007800081E0A21C01238BE0013443F002032278B4
:10079000302AF9D0002206E002EB82025000A1F1DB
:1007A0003002024401342178A1F13000C0B209289E
:1007B000F2D9732918D0642922D078292FD058294A
:1007C0003CD0752949D063295CD10599081D059055
:1007D00009788DF81C1000218DF81D1007A93046EE
:1007E000344FB84705444DE00599081D0590096848
:1007F00021B130462F4FB847054443E02E49F8E772
:100800000599081D059009686120029001930092E6
:1008100001230A223046294FB847054432E00599A2
:10082000081D059009686120029001930092002341
:1008300010223046214FB847054423E00599081D92
:100840000590096841200290019300920023102234
:1008500030461A4FB847054414E00599081D059025
:100860000968612002900193009200230A22304619
:10087000124FB847054405E0144621783046104B26
:10088000984701350134237863B1252BF5D1621CDB
:1008900063783BB1252BEFD02D2B3FF472AF0023B3
:1008A000144674E716B1336800221A70284609B05E
:1008B000F0BD00BF45060800640D0800C906080029
:1008C000350608000FB400B583B004AA52F8041B23
:1008D00001920020034B984703B05DF804EB04B08D
:1008E000704700BF750708004F2805DDA52808DC04
:1008F000064BC3F8A40270475022044BC3F8A4224D
:100900007047A522014BC3F8A4227047004009405C
:1009100008B5144B20225A601349D1F8002142F047
:100920001002C1F80021114A506840F400205060C4
:10093000106F40F4002010674FF08052C1F80C2176
:100940001A6842F001021A601A681A6040F20A221C
:10095000C3F8A02240F26962C3F8AC227A20044BAB
:10096000984708BD0040094000060E4000120E40A6
:10097000E908080010B5044601460848084B9847A6
:1009800004EB840404EB0414064880FB0430E417F1
:10099000C4EB60105030044B984710BD6C0D08003C
:1009A000C50808001F85EB51E9080800542303FB24
:1009B00000F020F07F4020F003000138084B586021
:1009C00000229A60074981F8232004221A601A68DD
:1009D00042F002021A601A6842F001021A6070477F
:1009E00010E000E000ED00E008B5054B18600120C4
:1009F000044B9847024B1B68002BFBD108BD00BF7E
:100A000050040020AD09080008B5054B18604FF4EC
:100A10007A70044B9847024B1B68002BFBD108BD32
:100A200050040020AD090800054B1B681BB90022CB
:100A3000044B1A607047024A1368013B1360704709
:100A40005004002010E000E0164B00221A705A708B
:100A5000154B4FF44071596459601A6F186F02407A
:100A600022F440721A6759664FF48072A3F500634E
:100A70001A6103F50073AC21196040F22321196259
:100A80004FF40061596040F20221C3F820114FF089
:100A9000FF31D960E121996004490A6050221A604F
:100AA000704700BF54040020000E0E4000E100E03B
:100AB000074B5B6913F0020F08D0054BD861044B5C
:100AC0005B6913F4007FFAD0002070470120704763
:100AD00000080E4008B5154B5B6913F0E00F03D01A
:100AE0004FF4A871114A116013F0010F12D0104891
:100AF0004278531C594203F03F0301F03F0158BFB5
:100B00004B4201788B4206D00849886908490A445B
:100B100090704B7008BD0748074B9847044B5978B5
:100B2000024A92690B449A7008BD00BF00080E404B
:100B300054040020800D0800C508080070B50F4E51
:100B40000F4D761BB61018BF002405D0013455F8A0
:100B5000043B9847A642F9D10A4E0B4D00F022F90A
:100B6000761BB61018BF002406D0013455F8043B9C
:100B70009847A642F9D170BD70BD00BFB00D080006
:100B8000B00D0800B80D0800B00D0800024B13B1FD
:100B9000024800F005B8704700000000AD0B0800E7
:100BA000002301461A46184600F01EB838B50A4C14
:100BB0000A4D641BA4100AD004F18043013B05EBED
:100BC0008305013C55F804399847002CF9D1BDE85C
:100BD000384000F0F1B800BFC80D0800C40D08008F
:100BE000704700BF704700BF2DE9F8432C4D064603
:100BF000286898460F469146FFF7F2FF294B1C687C
:100C0000D4F84831002B3ED05A681F2A1CDC02F170
:100C1000010E76B1012103EB8204C4F88890D3F869
:100C2000880191400843022EC3F88801C4F8088166
:100C300023D00232C3F804E0286843F82270FFF79B
:100C4000D1FF0020BDE8F883174B0BB34FF4C870F9
:100C5000AFF300800346D8B10020D4F848114FF01C
:100C6000010E586019600246C4F84831C3F8880183
:100C7000C3F88C01002EDCD0CCE7D3F88C01014303
:100C8000C3F88C11D5E704F5A673C4F84831BBE767
:100C90002868FFF7A7FF4FF0FF30BDE8F88300BFDB
:100CA00030040020A00D08000000000043414E3039
:100CB000206D657373616765206172726976656422
:100CC00020696E206E6F6E2D75736564206D61698D
:100CD0006C626F780A0D0000536C696465723A208B
:100CE0002575200D0A000000427574746F6E204156
:100CF0003A202575090920427574746F6E20423AB6
:100D0000202575200D0A00002D2D2D2D2D2D2D2D8A
:100D10002D2D2D2D2D2D2D2D2D2D2D2D2D2D2D2D03
:100D20002D2D2D2D2D2D2D2D2D2D2D2D25630D0A08
:100D300000000000454E434F444120486967682049
:100D4000425954453A202578200D0A00454E434F1C
:100D50004441206C6F7720425954453A2025782031
:100D60000D0A0000286E756C6C290000582D504546
:100D70005243454E544147453A2025750D0A00001F
:100D80004552523A205541525420525820627566BD
:100D90006665722069732066756C6C0A0D00000030
:100DA00008000020F8B500BFF8BC08BC9E4670479C
:100DB0008D0B080019010800F8B500BFF8BC08BC8D
:080DC0009E467047F500080093
:100DC80000093D000000000000000000F4020020BF
:100DD8005C030020C40300200000000000000000A5
:100DE80000000000000000000000000000000000FB
:100DF80000000000000000000000000000000000EB
:100E080000000000000000000000000000000000DA
:100E180000000000000000000000000000000000CA
:100E280000000000000000000000000000000000BA
:100E380000000000000000000000000000000000AA
:100E4800000000000000000000000000000000009A
:100E5800000000000000000000000000000000008A
:100E6800000000000000000000000000000000007A
:100E780001000000000000000E33CDAB34126DE617
:100E8800ECDE05000B000000000000000000000080
:100E9800000000000000000000000000000000004A
:100EA800000000000000000000000000000000003A
:100EB800000000000000000000000000000000002A
:100EC800000000000000000000000000000000001A
:0411F8009804002037
:040000038000000079
:00000001FF
